{
  "contractName": "CrowdsaleERC20Chainlink",
  "abi": [
    {
      "inputs": [],
      "name": "init",
      "outputs": [],
      "stateMutability": "nonpayable",
      "type": "function"
    },
    {
      "inputs": [
        {
          "internalType": "address",
          "name": "chainlinkAddress",
          "type": "address"
        }
      ],
      "name": "getAddressERC20",
      "outputs": [
        {
          "internalType": "address",
          "name": "",
          "type": "address"
        }
      ],
      "stateMutability": "view",
      "type": "function",
      "constant": true
    },
    {
      "inputs": [
        {
          "internalType": "address",
          "name": "chainlinkAddress",
          "type": "address"
        },
        {
          "internalType": "uint256",
          "name": "amount",
          "type": "uint256"
        }
      ],
      "name": "receiveToken",
      "outputs": [],
      "stateMutability": "payable",
      "type": "function",
      "payable": true
    },
    {
      "inputs": [
        {
          "internalType": "address",
          "name": "chainlinkAddress",
          "type": "address"
        }
      ],
      "name": "balanceOfToken",
      "outputs": [
        {
          "internalType": "uint256",
          "name": "",
          "type": "uint256"
        }
      ],
      "stateMutability": "view",
      "type": "function",
      "constant": true
    },
    {
      "inputs": [
        {
          "internalType": "address",
          "name": "chainlinkAddress",
          "type": "address"
        }
      ],
      "name": "getThePrice",
      "outputs": [
        {
          "internalType": "uint256",
          "name": "",
          "type": "uint256"
        }
      ],
      "stateMutability": "view",
      "type": "function",
      "constant": true
    }
  ],
  "bytecode": "0x608060405234801561001057600080fd5b50612eab806100206000396000f3fe6080604052600436106200006d576000357c0100000000000000000000000000000000000000000000000000000000900480633ed47d97146200007257806344a11f6514620000b657806397235a1e14620000fa578063b99152d0146200011a578063e1c7392a146200015e575b600080fd5b3480156200007f57600080fd5b506200009e600480360381019062000098919062000d64565b62000178565b604051620000ad919062000f83565b60405180910390f35b348015620000c357600080fd5b50620000e26004803603810190620000dc919062000d64565b620001e1565b604051620000f191906200106e565b60405180910390f35b62000118600480360381019062000112919062000d90565b620002a5565b005b3480156200012757600080fd5b5062000146600480360381019062000140919062000d64565b620003d2565b6040516200015591906200106e565b60405180910390f35b3480156200016b57600080fd5b506200017662000495565b005b6000600160008373ffffffffffffffffffffffffffffffffffffffff1673ffffffffffffffffffffffffffffffffffffffff16815260200190815260200160002060009054906101000a900473ffffffffffffffffffffffffffffffffffffffff169050919050565b60008082905060008060008060008573ffffffffffffffffffffffffffffffffffffffff1663feaf968c6040518163ffffffff167c010000000000000000000000000000000000000000000000000000000002815260040160a06040518083038186803b1580156200025257600080fd5b505afa15801562000267573d6000803e3d6000fd5b505050506040513d601f19601f820116820180604052508101906200028d919062000e29565b94509450945094509450839650505050505050919050565b6000808373ffffffffffffffffffffffffffffffffffffffff1673ffffffffffffffffffffffffffffffffffffffff16815260200190815260200160002060009054906101000a900460ff1662000333576040517f08c379a00000000000000000000000000000000000000000000000000000000081526004016200032a9062001008565b60405180910390fd5b600062000340836200097a565b90508164174876e80082620003569190620010a7565b116200036157600080fd5b620003cd3383600160008773ffffffffffffffffffffffffffffffffffffffff1673ffffffffffffffffffffffffffffffffffffffff16815260200190815260200160002060009054906101000a900473ffffffffffffffffffffffffffffffffffffffff16620009f0565b505050565b600080620003e08362000178565b90508073ffffffffffffffffffffffffffffffffffffffff166370a08231336040518263ffffffff167c010000000000000000000000000000000000000000000000000000000002815260040162000439919062000f83565b60206040518083038186803b1580156200045257600080fd5b505afa15801562000467573d6000803e3d6000fd5b505050506040513d601f19601f820116820180604052508101906200048d919062000dfd565b915050919050565b620005206040518060400160405280600781526020017f4574686572756d000000000000000000000000000000000000000000000000008152506040518060400160405280600381526020017f4554480000000000000000000000000000000000000000000000000000000000815250738a753747a1fa494ec906ce90e9f37563a8af630e62000af3565b620005ab6040518060400160405280600a81526020017f4272617665546f6b656e000000000000000000000000000000000000000000008152506040518060400160405280600381526020017f424154000000000000000000000000000000000000000000000000000000000081525073031db56e01f82f20803059331dc6bee9b17f7fc962000af3565b620006366040518060400160405280600b81526020017f42696e616e6365436f696e0000000000000000000000000000000000000000008152506040518060400160405280600381526020017f424e42000000000000000000000000000000000000000000000000000000000081525073cf0f51ca2cdaecb464eee4227f5295f2384f84ed62000af3565b620006c16040518060400160405280600981526020017f436861696e4c696e6b00000000000000000000000000000000000000000000008152506040518060400160405280600481526020017f4c494e4b0000000000000000000000000000000000000000000000000000000081525073d8bd0a1cb028a31aa859a21a3758685a95de462362000af3565b6200074c6040518060400160405280600881526020017f4c697465436f696e0000000000000000000000000000000000000000000000008152506040518060400160405280600381526020017f4c54430000000000000000000000000000000000000000000000000000000000815250734d38a35c2d87976f334c2d2379b535f1d461d9b462000af3565b620007d76040518060400160405280601081526020017f53796e7468657469784e6574776f726b000000000000000000000000000000008152506040518060400160405280600381526020017f534e58000000000000000000000000000000000000000000000000000000000081525073e96c4407597cd507002df88ff6e0008ab41266ee62000af3565b620008626040518060400160405280600481526020017f54726f6e000000000000000000000000000000000000000000000000000000008152506040518060400160405280600381526020017f545258000000000000000000000000000000000000000000000000000000000081525073b29f616a0d54ff292e997922fff46012a63e2fae62000af3565b620008ed6040518060400160405280600681526020017f526970706c6500000000000000000000000000000000000000000000000000008152506040518060400160405280600381526020017f585250000000000000000000000000000000000000000000000000000000000081525073c3e76f41caba4ab38f00c7255d4df663da02a02462000af3565b620009786040518060400160405280600681526020017f3078436f696e00000000000000000000000000000000000000000000000000008152506040518060400160405280600381526020017f5a5258000000000000000000000000000000000000000000000000000000000081525073f7bbe4d7d13d600127b6aa132f1dcea301e9c8fc62000af3565b565b600080620009c0620009af620009a4738a753747a1fa494ec906ce90e9f37563a8af630e620001e1565b6305f5e10062000c9c565b620009ba85620001e1565b62000cb4565b905060008134620009d291906200113c565b9050620009e4816305f5e10062000cb4565b90508092505050919050565b67016345785d8a000034101562000a3e576040517f08c379a000000000000000000000000000000000000000000000000000000000815260040162000a35906200102a565b60405180910390fd5b8073ffffffffffffffffffffffffffffffffffffffff1663a9059cbb84846040518363ffffffff167c010000000000000000000000000000000000000000000000000000000002815260040162000a9792919062000fa0565b602060405180830381600087803b15801562000ab257600080fd5b505af115801562000ac7573d6000803e3d6000fd5b505050506040513d601f19601f8201168201806040525081019062000aed919062000dd1565b50505050565b6000808273ffffffffffffffffffffffffffffffffffffffff1673ffffffffffffffffffffffffffffffffffffffff16815260200190815260200160002060009054906101000a900460ff161562000b82576040517f08c379a000000000000000000000000000000000000000000000000000000000815260040162000b79906200104c565b60405180910390fd5b6000838360405162000b949062000ccc565b62000ba192919062000fcd565b604051809103906000f08015801562000bbe573d6000803e3d6000fd5b50905080600160008473ffffffffffffffffffffffffffffffffffffffff1673ffffffffffffffffffffffffffffffffffffffff16815260200190815260200160002060006101000a81548173ffffffffffffffffffffffffffffffffffffffff021916908373ffffffffffffffffffffffffffffffffffffffff16021790555060016000808473ffffffffffffffffffffffffffffffffffffffff1673ffffffffffffffffffffffffffffffffffffffff16815260200190815260200160002060006101000a81548160ff02191690831515021790555050505050565b6000818362000cac91906200113c565b905092915050565b6000818362000cc4919062001104565b905092915050565b611a5a806200141c83390190565b60008135905062000ceb8162001399565b92915050565b60008151905062000d0281620013b3565b92915050565b60008151905062000d1981620013cd565b92915050565b60008135905062000d3081620013e7565b92915050565b60008151905062000d4781620013e7565b92915050565b60008151905062000d5e8162001401565b92915050565b60006020828403121562000d7757600080fd5b600062000d878482850162000cda565b91505092915050565b6000806040838503121562000da457600080fd5b600062000db48582860162000cda565b925050602062000dc78582860162000d1f565b9150509250929050565b60006020828403121562000de457600080fd5b600062000df48482850162000cf1565b91505092915050565b60006020828403121562000e1057600080fd5b600062000e208482850162000d36565b91505092915050565b600080600080600060a0868803121562000e4257600080fd5b600062000e528882890162000d4d565b955050602062000e658882890162000d08565b945050604062000e788882890162000d36565b935050606062000e8b8882890162000d36565b925050608062000e9e8882890162000d4d565b9150509295509295909350565b62000eb6816200119d565b82525050565b600062000ec9826200108b565b62000ed5818562001096565b935062000ee781856020860162001207565b62000ef2816200129b565b840191505092915050565b600062000f0c60298362001096565b915062000f1982620012ac565b604082019050919050565b600062000f3360228362001096565b915062000f4082620012fb565b604082019050919050565b600062000f5a60258362001096565b915062000f67826200134a565b604082019050919050565b62000f7d81620011e7565b82525050565b600060208201905062000f9a600083018462000eab565b92915050565b600060408201905062000fb7600083018562000eab565b62000fc6602083018462000f72565b9392505050565b6000604082019050818103600083015262000fe9818562000ebc565b9050818103602083015262000fff818462000ebc565b90509392505050565b60006020820190508181036000830152620010238162000efd565b9050919050565b60006020820190508181036000830152620010458162000f24565b9050919050565b60006020820190508181036000830152620010678162000f4b565b9050919050565b600060208201905062001085600083018462000f72565b92915050565b600081519050919050565b600082825260208201905092915050565b6000620010b482620011e7565b9150620010c183620011e7565b9250827fffffffffffffffffffffffffffffffffffffffffffffffffffffffffffffffff03821115620010f957620010f86200123d565b5b828201905092915050565b60006200111182620011e7565b91506200111e83620011e7565b9250826200113157620011306200126c565b5b828204905092915050565b60006200114982620011e7565b91506200115683620011e7565b9250817fffffffffffffffffffffffffffffffffffffffffffffffffffffffffffffffff04831182151516156200119257620011916200123d565b5b828202905092915050565b6000620011aa82620011c7565b9050919050565b60008115159050919050565b6000819050919050565b600073ffffffffffffffffffffffffffffffffffffffff82169050919050565b6000819050919050565b600069ffffffffffffffffffff82169050919050565b60005b83811015620012275780820151818401526020810190506200120a565b8381111562001237576000848401525b50505050565b7f4e487b7100000000000000000000000000000000000000000000000000000000600052601160045260246000fd5b7f4e487b7100000000000000000000000000000000000000000000000000000000600052601260045260246000fd5b6000601f19601f8301169050919050565b7f4572726f7220746869732061646472657373206973206e6f7420616c7265616460008201527f7920646566696e65640000000000000000000000000000000000000000000000602082015250565b7f796f752063616e27742073656e74206c657373207468616e20302e312065746860008201527f6572000000000000000000000000000000000000000000000000000000000000602082015250565b7f4572726f722074686973206164647265737320697320616c726561647920646560008201527f66696e6564000000000000000000000000000000000000000000000000000000602082015250565b620013a4816200119d565b8114620013b057600080fd5b50565b620013be81620011b1565b8114620013ca57600080fd5b50565b620013d881620011bd565b8114620013e457600080fd5b50565b620013f281620011e7565b8114620013fe57600080fd5b50565b6200140c81620011f1565b81146200141857600080fd5b5056fe60806040523480156200001157600080fd5b5060405162001a5a38038062001a5a83398181016040528101906200003791906200032f565b81818160039080519060200190620000519291906200020d565b5080600490805190602001906200006a9291906200020d565b505050620000923369021e19e0c9bab24000006200009a640100000000026401000000009004565b505062000659565b600073ffffffffffffffffffffffffffffffffffffffff168273ffffffffffffffffffffffffffffffffffffffff1614156200010d576040517f08c379a00000000000000000000000000000000000000000000000000000000081526004016200010490620003da565b60405180910390fd5b6200012a6000838362000208640100000000026401000000009004565b80600260008282546200013e919062000489565b92505081905550806000808473ffffffffffffffffffffffffffffffffffffffff1673ffffffffffffffffffffffffffffffffffffffff168152602001908152602001600020600082825462000195919062000489565b925050819055508173ffffffffffffffffffffffffffffffffffffffff16600073ffffffffffffffffffffffffffffffffffffffff167fddf252ad1be2c89b69c2b068fc378daa952ba7f163c4a11628f55a4df523b3ef83604051620001fc9190620003fc565b60405180910390a35050565b505050565b8280546200021b9062000526565b90600052602060002090601f0160209004810192826200023f57600085556200028b565b82601f106200025a57805160ff19168380011785556200028b565b828001600101855582156200028b579182015b828111156200028a5782518255916020019190600101906200026d565b5b5090506200029a91906200029e565b5090565b5b80821115620002b95760008160009055506001016200029f565b5090565b6000620002d4620002ce8462000442565b62000419565b905082815260208101848484011115620002ed57600080fd5b620002fa848285620004f0565b509392505050565b600082601f8301126200031457600080fd5b815162000326848260208601620002bd565b91505092915050565b600080604083850312156200034357600080fd5b600083015167ffffffffffffffff8111156200035e57600080fd5b6200036c8582860162000302565b925050602083015167ffffffffffffffff8111156200038a57600080fd5b620003988582860162000302565b9150509250929050565b6000620003b1601f8362000478565b9150620003be8262000630565b602082019050919050565b620003d481620004e6565b82525050565b60006020820190508181036000830152620003f581620003a2565b9050919050565b6000602082019050620004136000830184620003c9565b92915050565b60006200042562000438565b90506200043382826200055c565b919050565b6000604051905090565b600067ffffffffffffffff82111562000460576200045f620005f0565b5b6200046b826200061f565b9050602081019050919050565b600082825260208201905092915050565b60006200049682620004e6565b9150620004a383620004e6565b9250827fffffffffffffffffffffffffffffffffffffffffffffffffffffffffffffffff03821115620004db57620004da62000592565b5b828201905092915050565b6000819050919050565b60005b8381101562000510578082015181840152602081019050620004f3565b8381111562000520576000848401525b50505050565b600060028204905060018216806200053f57607f821691505b60208210811415620005565762000555620005c1565b5b50919050565b62000567826200061f565b810181811067ffffffffffffffff82111715620005895762000588620005f0565b5b80604052505050565b7f4e487b7100000000000000000000000000000000000000000000000000000000600052601160045260246000fd5b7f4e487b7100000000000000000000000000000000000000000000000000000000600052602260045260246000fd5b7f4e487b7100000000000000000000000000000000000000000000000000000000600052604160045260246000fd5b6000601f19601f8301169050919050565b7f45524332303a206d696e7420746f20746865207a65726f206164647265737300600082015250565b6113f180620006696000396000f3fe608060405234801561001057600080fd5b50600436106100c6576000357c010000000000000000000000000000000000000000000000000000000090048063395093511161008e578063395093511461018557806370a08231146101b557806395d89b41146101e5578063a457c2d714610203578063a9059cbb14610233578063dd62ed3e14610263576100c6565b806306fdde03146100cb578063095ea7b3146100e957806318160ddd1461011957806323b872dd14610137578063313ce56714610167575b600080fd5b6100d3610293565b6040516100e09190610e5d565b60405180910390f35b61010360048036038101906100fe9190610cab565b610325565b6040516101109190610e42565b60405180910390f35b610121610343565b60405161012e9190610f5f565b60405180910390f35b610151600480360381019061014c9190610c5c565b61034d565b60405161015e9190610e42565b60405180910390f35b61016f61044e565b60405161017c9190610f7a565b60405180910390f35b61019f600480360381019061019a9190610cab565b610457565b6040516101ac9190610e42565b60405180910390f35b6101cf60048036038101906101ca9190610bf7565b610503565b6040516101dc9190610f5f565b60405180910390f35b6101ed61054b565b6040516101fa9190610e5d565b60405180910390f35b61021d60048036038101906102189190610cab565b6105dd565b60405161022a9190610e42565b60405180910390f35b61024d60048036038101906102489190610cab565b6106d1565b60405161025a9190610e42565b60405180910390f35b61027d60048036038101906102789190610c20565b6106ef565b60405161028a9190610f5f565b60405180910390f35b6060600380546102a2906110c3565b80601f01602080910402602001604051908101604052809291908181526020018280546102ce906110c3565b801561031b5780601f106102f05761010080835404028352916020019161031b565b820191906000526020600020905b8154815290600101906020018083116102fe57829003601f168201915b5050505050905090565b6000610339610332610776565b848461077e565b6001905092915050565b6000600254905090565b600061035a848484610949565b6000600160008673ffffffffffffffffffffffffffffffffffffffff1673ffffffffffffffffffffffffffffffffffffffff16815260200190815260200160002060006103a5610776565b73ffffffffffffffffffffffffffffffffffffffff1673ffffffffffffffffffffffffffffffffffffffff16815260200190815260200160002054905082811015610425576040517f08c379a000000000000000000000000000000000000000000000000000000000815260040161041c90610edf565b60405180910390fd5b61044285610431610776565b858461043d9190611007565b61077e565b60019150509392505050565b60006012905090565b60006104f9610464610776565b848460016000610472610776565b73ffffffffffffffffffffffffffffffffffffffff1673ffffffffffffffffffffffffffffffffffffffff16815260200190815260200160002060008873ffffffffffffffffffffffffffffffffffffffff1673ffffffffffffffffffffffffffffffffffffffff168152602001908152602001600020546104f49190610fb1565b61077e565b6001905092915050565b60008060008373ffffffffffffffffffffffffffffffffffffffff1673ffffffffffffffffffffffffffffffffffffffff168152602001908152602001600020549050919050565b60606004805461055a906110c3565b80601f0160208091040260200160405190810160405280929190818152602001828054610586906110c3565b80156105d35780601f106105a8576101008083540402835291602001916105d3565b820191906000526020600020905b8154815290600101906020018083116105b657829003601f168201915b5050505050905090565b600080600160006105ec610776565b73ffffffffffffffffffffffffffffffffffffffff1673ffffffffffffffffffffffffffffffffffffffff16815260200190815260200160002060008573ffffffffffffffffffffffffffffffffffffffff1673ffffffffffffffffffffffffffffffffffffffff168152602001908152602001600020549050828110156106a9576040517f08c379a00000000000000000000000000000000000000000000000000000000081526004016106a090610f3f565b60405180910390fd5b6106c66106b4610776565b8585846106c19190611007565b61077e565b600191505092915050565b60006106e56106de610776565b8484610949565b6001905092915050565b6000600160008473ffffffffffffffffffffffffffffffffffffffff1673ffffffffffffffffffffffffffffffffffffffff16815260200190815260200160002060008373ffffffffffffffffffffffffffffffffffffffff1673ffffffffffffffffffffffffffffffffffffffff16815260200190815260200160002054905092915050565b600033905090565b600073ffffffffffffffffffffffffffffffffffffffff168373ffffffffffffffffffffffffffffffffffffffff1614156107ee576040517f08c379a00000000000000000000000000000000000000000000000000000000081526004016107e590610f1f565b60405180910390fd5b600073ffffffffffffffffffffffffffffffffffffffff168273ffffffffffffffffffffffffffffffffffffffff16141561085e576040517f08c379a000000000000000000000000000000000000000000000000000000000815260040161085590610e9f565b60405180910390fd5b80600160008573ffffffffffffffffffffffffffffffffffffffff1673ffffffffffffffffffffffffffffffffffffffff16815260200190815260200160002060008473ffffffffffffffffffffffffffffffffffffffff1673ffffffffffffffffffffffffffffffffffffffff168152602001908152602001600020819055508173ffffffffffffffffffffffffffffffffffffffff168373ffffffffffffffffffffffffffffffffffffffff167f8c5be1e5ebec7d5bd14f71427d1e84f3dd0314c0f7b2291e5b200ac8c7c3b9258360405161093c9190610f5f565b60405180910390a3505050565b600073ffffffffffffffffffffffffffffffffffffffff168373ffffffffffffffffffffffffffffffffffffffff1614156109b9576040517f08c379a00000000000000000000000000000000000000000000000000000000081526004016109b090610eff565b60405180910390fd5b600073ffffffffffffffffffffffffffffffffffffffff168273ffffffffffffffffffffffffffffffffffffffff161415610a29576040517f08c379a0000000000000000000000000000000000000000000000000000000008152600401610a2090610e7f565b60405180910390fd5b610a34838383610bc8565b60008060008573ffffffffffffffffffffffffffffffffffffffff1673ffffffffffffffffffffffffffffffffffffffff16815260200190815260200160002054905081811015610aba576040517f08c379a0000000000000000000000000000000000000000000000000000000008152600401610ab190610ebf565b60405180910390fd5b8181610ac69190611007565b6000808673ffffffffffffffffffffffffffffffffffffffff1673ffffffffffffffffffffffffffffffffffffffff16815260200190815260200160002081905550816000808573ffffffffffffffffffffffffffffffffffffffff1673ffffffffffffffffffffffffffffffffffffffff1681526020019081526020016000206000828254610b569190610fb1565b925050819055508273ffffffffffffffffffffffffffffffffffffffff168473ffffffffffffffffffffffffffffffffffffffff167fddf252ad1be2c89b69c2b068fc378daa952ba7f163c4a11628f55a4df523b3ef84604051610bba9190610f5f565b60405180910390a350505050565b505050565b600081359050610bdc8161138d565b92915050565b600081359050610bf1816113a4565b92915050565b600060208284031215610c0957600080fd5b6000610c1784828501610bcd565b91505092915050565b60008060408385031215610c3357600080fd5b6000610c4185828601610bcd565b9250506020610c5285828601610bcd565b9150509250929050565b600080600060608486031215610c7157600080fd5b6000610c7f86828701610bcd565b9350506020610c9086828701610bcd565b9250506040610ca186828701610be2565b9150509250925092565b60008060408385031215610cbe57600080fd5b6000610ccc85828601610bcd565b9250506020610cdd85828601610be2565b9150509250929050565b610cf08161104d565b82525050565b6000610d0182610f95565b610d0b8185610fa0565b9350610d1b818560208601611090565b610d2481611153565b840191505092915050565b6000610d3c602383610fa0565b9150610d4782611164565b604082019050919050565b6000610d5f602283610fa0565b9150610d6a826111b3565b604082019050919050565b6000610d82602683610fa0565b9150610d8d82611202565b604082019050919050565b6000610da5602883610fa0565b9150610db082611251565b604082019050919050565b6000610dc8602583610fa0565b9150610dd3826112a0565b604082019050919050565b6000610deb602483610fa0565b9150610df6826112ef565b604082019050919050565b6000610e0e602583610fa0565b9150610e198261133e565b604082019050919050565b610e2d81611079565b82525050565b610e3c81611083565b82525050565b6000602082019050610e576000830184610ce7565b92915050565b60006020820190508181036000830152610e778184610cf6565b905092915050565b60006020820190508181036000830152610e9881610d2f565b9050919050565b60006020820190508181036000830152610eb881610d52565b9050919050565b60006020820190508181036000830152610ed881610d75565b9050919050565b60006020820190508181036000830152610ef881610d98565b9050919050565b60006020820190508181036000830152610f1881610dbb565b9050919050565b60006020820190508181036000830152610f3881610dde565b9050919050565b60006020820190508181036000830152610f5881610e01565b9050919050565b6000602082019050610f746000830184610e24565b92915050565b6000602082019050610f8f6000830184610e33565b92915050565b600081519050919050565b600082825260208201905092915050565b6000610fbc82611079565b9150610fc783611079565b9250827fffffffffffffffffffffffffffffffffffffffffffffffffffffffffffffffff03821115610ffc57610ffb6110f5565b5b828201905092915050565b600061101282611079565b915061101d83611079565b9250828210156110305761102f6110f5565b5b828203905092915050565b600061104682611059565b9050919050565b60008115159050919050565b600073ffffffffffffffffffffffffffffffffffffffff82169050919050565b6000819050919050565b600060ff82169050919050565b60005b838110156110ae578082015181840152602081019050611093565b838111156110bd576000848401525b50505050565b600060028204905060018216806110db57607f821691505b602082108114156110ef576110ee611124565b5b50919050565b7f4e487b7100000000000000000000000000000000000000000000000000000000600052601160045260246000fd5b7f4e487b7100000000000000000000000000000000000000000000000000000000600052602260045260246000fd5b6000601f19601f8301169050919050565b7f45524332303a207472616e7366657220746f20746865207a65726f206164647260008201527f6573730000000000000000000000000000000000000000000000000000000000602082015250565b7f45524332303a20617070726f766520746f20746865207a65726f20616464726560008201527f7373000000000000000000000000000000000000000000000000000000000000602082015250565b7f45524332303a207472616e7366657220616d6f756e742065786365656473206260008201527f616c616e63650000000000000000000000000000000000000000000000000000602082015250565b7f45524332303a207472616e7366657220616d6f756e742065786365656473206160008201527f6c6c6f77616e6365000000000000000000000000000000000000000000000000602082015250565b7f45524332303a207472616e736665722066726f6d20746865207a65726f20616460008201527f6472657373000000000000000000000000000000000000000000000000000000602082015250565b7f45524332303a20617070726f76652066726f6d20746865207a65726f2061646460008201527f7265737300000000000000000000000000000000000000000000000000000000602082015250565b7f45524332303a2064656372656173656420616c6c6f77616e63652062656c6f7760008201527f207a65726f000000000000000000000000000000000000000000000000000000602082015250565b6113968161103b565b81146113a157600080fd5b50565b6113ad81611079565b81146113b857600080fd5b5056fea2646970667358221220e8473cb10c6480f17bb9fc3269f7f0fa935e29261ff17b13bae3f49d9ab6ee0364736f6c63430008010033a2646970667358221220274ada93bc4f5a9c2f4e281fd7797377e91d62341107e05218f70f09447ec7cd64736f6c63430008010033",
  "immutableReferences": {},
  "source": "// SPDX-License-Identifier: MIT\r\npragma solidity 0.8.1;\r\n\r\nimport \"./ERC20Chainlink.sol\";\r\nimport '@openzeppelin/contracts/utils/math/SafeMath.sol';\r\nimport \"@chainlink/contracts/src/v0.6/interfaces/AggregatorV3Interface.sol\";\r\n\r\ncontract CrowdsaleERC20Chainlink {  \r\n  \r\n  mapping(address => bool) mappChainlinkAddress;\r\n  mapping(address => address) pairAddress;\r\n  \r\n  // to init some moneys of chainlink \r\n  function init() external{\r\n      createMoney(\"Etherum\",\"ETH\", 0x8A753747A1Fa494EC906cE90E9f37563A8AF630e);\r\n      createMoney(\"BraveToken\",\"BAT\", 0x031dB56e01f82f20803059331DC6bEe9b17F7fC9);\r\n      createMoney(\"BinanceCoin\",\"BNB\", 0xcf0f51ca2cDAecb464eeE4227f5295F2384F84ED);\r\n      createMoney(\"ChainLink\",\"LINK\", 0xd8bD0a1cB028a31AA859A21A3758685a95dE4623);\r\n      createMoney(\"LiteCoin\",\"LTC\", 0x4d38a35C2D87976F334c2d2379b535F1D461D9B4);\r\n      createMoney(\"SynthetixNetwork\",\"SNX\", 0xE96C4407597CD507002dF88ff6E0008AB41266Ee);\r\n      createMoney(\"Tron\",\"TRX\", 0xb29f616a0d54FF292e997922fFf46012a63E2FAe);\r\n      createMoney(\"Ripple\",\"XRP\", 0xc3E76f41CAbA4aB38F00c7255d4df663DA02A024);\r\n      createMoney(\"0xCoin\",\"ZRX\", 0xF7Bbe4D7d13d600127B6Aa132f1dCea301e9c8Fc);\r\n  }\r\n  \r\n  function createMoney(string memory name, string memory coinName, address chainlinkAddress) internal{\r\n      require(!mappChainlinkAddress[chainlinkAddress], \"Error this address is already defined\");\r\n      ERC20Chainlink link = new ERC20Chainlink(name, coinName);\r\n      pairAddress[chainlinkAddress] = address(link);\r\n      mappChainlinkAddress[chainlinkAddress] = true;\r\n  }\r\n  \r\n  function getAddressERC20(address chainlinkAddress) public view returns(address){\r\n      return pairAddress[chainlinkAddress];\r\n  }\r\n  \r\n  // Calcultate with the ETH sent the price of ETH and the price of token how many tokens we will have\r\n  function getAmountWithEtherSent(address chainlinkAddress) internal returns(uint256){\r\n      uint256 val = SafeMath.div(SafeMath.mul(getThePrice(0x8A753747A1Fa494EC906cE90E9f37563A8AF630e),1e8), getThePrice(chainlinkAddress));\r\n      uint256 amount = msg.value * val;\r\n      amount = SafeMath.div(amount,1e8);\r\n      return amount;\r\n  }\r\n  \r\n  // buy with ether an amountof the chainlink token \r\n  function receiveToken(address chainlinkAddress, uint256 amount) external payable {\r\n       require(mappChainlinkAddress[chainlinkAddress], \"Error this address is not already defined\");\r\n       uint256 amountWithETH = getAmountWithEtherSent(chainlinkAddress);\r\n       // to verify there is enough eth sent\r\n       require(amountWithETH + 100000000000 > amount);\r\n       distribute(msg.sender, amount, pairAddress[chainlinkAddress] );\r\n  }\r\n  \r\n  function distribute(address to, uint256 amount, address tokenAddress) internal {\r\n       require(msg.value >= 0.1 ether, \"you can't sent less than 0.1 ether\");\r\n       ERC20(tokenAddress).transfer(to, amount);\r\n  }\r\n  \r\n  function balanceOfToken(address chainlinkAddress) external view returns(uint256){\r\n      address tokenAddress = getAddressERC20(chainlinkAddress);\r\n      return ERC20(tokenAddress).balanceOf(msg.sender);\r\n  }\r\n  \r\n  function getThePrice(address chainlinkAddress) public view returns (uint) {\r\n       AggregatorV3Interface agg = AggregatorV3Interface(chainlinkAddress);\r\n        (uint80 roundID,int price,uint startedAt,uint timeStamp,uint80 answeredInRound) = agg.latestRoundData();\r\n        return uint(price);\r\n  }\r\n}",
  "sourcePath": "C:\\Node\\StakingGanache\\contracts\\CrowdsaleERC20Chainlink.sol",
  "compiler": {
    "name": "solc",
    "version": "0.8.1+commit.df193b15.Emscripten.clang"
  },
  "schemaVersion": "3.4.1",
  "updatedAt": "2021-07-03T08:02:56.881Z",
  "networkType": "ethereum",
  "devdoc": {
    "kind": "dev",
    "methods": {},
    "version": 1
  },
  "userdoc": {
    "kind": "user",
    "methods": {},
    "version": 1
  }
}