{
  "contractName": "Staking",
  "abi": [
    {
      "inputs": [
        {
          "internalType": "address",
          "name": "crowdAddress",
          "type": "address"
        }
      ],
      "stateMutability": "nonpayable",
      "type": "constructor"
    },
    {
      "anonymous": false,
      "inputs": [
        {
          "indexed": false,
          "internalType": "bytes",
          "name": "reason",
          "type": "bytes"
        }
      ],
      "name": "ErrorGetTheprice",
      "type": "event"
    },
    {
      "anonymous": false,
      "inputs": [
        {
          "indexed": false,
          "internalType": "address",
          "name": "user",
          "type": "address"
        },
        {
          "indexed": false,
          "internalType": "address",
          "name": "chainlinkAddress",
          "type": "address"
        }
      ],
      "name": "StakeToken",
      "type": "event"
    },
    {
      "anonymous": false,
      "inputs": [
        {
          "indexed": false,
          "internalType": "address",
          "name": "user",
          "type": "address"
        },
        {
          "indexed": false,
          "internalType": "address",
          "name": "chainlinkAddress",
          "type": "address"
        }
      ],
      "name": "UnStakeToken",
      "type": "event"
    },
    {
      "inputs": [],
      "name": "ERC20Interface",
      "outputs": [
        {
          "internalType": "contract IERC20",
          "name": "",
          "type": "address"
        }
      ],
      "stateMutability": "view",
      "type": "function",
      "constant": true
    },
    {
      "inputs": [],
      "name": "crowd",
      "outputs": [
        {
          "internalType": "contract CrowdsaleERC20Chainlink",
          "name": "",
          "type": "address"
        }
      ],
      "stateMutability": "view",
      "type": "function",
      "constant": true
    },
    {
      "inputs": [],
      "name": "elapsedTime",
      "outputs": [
        {
          "internalType": "uint256",
          "name": "",
          "type": "uint256"
        }
      ],
      "stateMutability": "view",
      "type": "function",
      "constant": true
    },
    {
      "inputs": [],
      "name": "tempRewards",
      "outputs": [
        {
          "internalType": "uint256",
          "name": "",
          "type": "uint256"
        }
      ],
      "stateMutability": "view",
      "type": "function",
      "constant": true
    },
    {
      "inputs": [],
      "name": "tempRewardsUSD",
      "outputs": [
        {
          "internalType": "uint256",
          "name": "",
          "type": "uint256"
        }
      ],
      "stateMutability": "view",
      "type": "function",
      "constant": true
    },
    {
      "inputs": [],
      "name": "tokenANTC",
      "outputs": [
        {
          "internalType": "contract ERC20Chainlink",
          "name": "",
          "type": "address"
        }
      ],
      "stateMutability": "view",
      "type": "function",
      "constant": true
    },
    {
      "inputs": [
        {
          "internalType": "address",
          "name": "chainlinkAddress",
          "type": "address"
        },
        {
          "internalType": "uint256",
          "name": "amount",
          "type": "uint256"
        }
      ],
      "name": "Stake",
      "outputs": [],
      "stateMutability": "nonpayable",
      "type": "function"
    },
    {
      "inputs": [],
      "name": "UnStake",
      "outputs": [],
      "stateMutability": "nonpayable",
      "type": "function"
    },
    {
      "inputs": [],
      "name": "GetTokenANTCAddress",
      "outputs": [
        {
          "internalType": "address",
          "name": "",
          "type": "address"
        }
      ],
      "stateMutability": "view",
      "type": "function",
      "constant": true
    },
    {
      "inputs": [
        {
          "internalType": "address",
          "name": "chainlinkAddress",
          "type": "address"
        }
      ],
      "name": "getTokenPrice",
      "outputs": [
        {
          "internalType": "uint256",
          "name": "",
          "type": "uint256"
        }
      ],
      "stateMutability": "view",
      "type": "function",
      "constant": true
    },
    {
      "inputs": [],
      "name": "getTokenRewardByUser",
      "outputs": [
        {
          "internalType": "uint256",
          "name": "",
          "type": "uint256"
        }
      ],
      "stateMutability": "view",
      "type": "function",
      "constant": true
    },
    {
      "inputs": [],
      "name": "getDataUser",
      "outputs": [
        {
          "components": [
            {
              "internalType": "uint256",
              "name": "startStaking",
              "type": "uint256"
            },
            {
              "internalType": "uint256",
              "name": "stopStaking",
              "type": "uint256"
            },
            {
              "internalType": "uint256",
              "name": "amount",
              "type": "uint256"
            },
            {
              "internalType": "uint256",
              "name": "amountReward",
              "type": "uint256"
            },
            {
              "internalType": "address",
              "name": "chainlinkAddress",
              "type": "address"
            },
            {
              "internalType": "address",
              "name": "tokenERC20Address",
              "type": "address"
            },
            {
              "internalType": "bool",
              "name": "isStaking",
              "type": "bool"
            },
            {
              "internalType": "bool",
              "name": "unstaked",
              "type": "bool"
            }
          ],
          "internalType": "struct Staking.staker",
          "name": "",
          "type": "tuple"
        }
      ],
      "stateMutability": "view",
      "type": "function",
      "constant": true
    }
  ],
  "bytecode": "0x60806040523480156200001157600080fd5b5060405162003e9938038062003e9983398181016040528101906200003791906200011a565b6040516200004590620000f5565b620000509062000194565b604051809103906000f0801580156200006d573d6000803e3d6000fd5b506000806101000a81548173ffffffffffffffffffffffffffffffffffffffff021916908373ffffffffffffffffffffffffffffffffffffffff16021790555080600660006101000a81548173ffffffffffffffffffffffffffffffffffffffff021916908373ffffffffffffffffffffffffffffffffffffffff160217905550506200027c565b611a5a806200243f83390190565b600081519050620001148162000262565b92915050565b6000602082840312156200012d57600080fd5b60006200013d8482850162000103565b91505092915050565b600062000155600483620001cb565b9150620001628262000210565b602082019050919050565b60006200017c600883620001cb565b9150620001898262000239565b602082019050919050565b60006040820190508181036000830152620001af816200016d565b90508181036020830152620001c48162000146565b9050919050565b600082825260208201905092915050565b6000620001e982620001f0565b9050919050565b600073ffffffffffffffffffffffffffffffffffffffff82169050919050565b7f414e544300000000000000000000000000000000000000000000000000000000600082015250565b7f414e544d4f4e4559000000000000000000000000000000000000000000000000600082015250565b6200026d81620001dc565b81146200027957600080fd5b50565b6121b3806200028c6000396000f3fe608060405234801561001057600080fd5b50600436106100d1576000357c010000000000000000000000000000000000000000000000000000000090048063ca7bb3f51161008e578063ca7bb3f51461018a578063d02641a0146101a8578063d9c4c20e146101d8578063ebedb8b3146101f6578063ecb9061514610212578063f4621daf1461021c576100d1565b80631bbc4b83146100d6578063227b0510146100f45780632dc647c41461011257806351453f9d14610130578063bb02b7491461014e578063ca0b66901461016c575b600080fd5b6100de61023a565b6040516100eb9190611cc7565b60405180910390f35b6100fc610260565b6040516101099190611d3e565b60405180910390f35b61011a610266565b6040516101279190611bcb565b60405180910390f35b61013861028f565b6040516101459190611d3e565b60405180910390f35b610156610295565b6040516101639190611d3e565b60405180910390f35b6101746102df565b6040516101819190611cac565b60405180910390f35b610192610303565b60405161019f9190611c91565b60405180910390f35b6101c260048036038101906101bd9190611952565b610329565b6040516101cf9190611d3e565b60405180910390f35b6101e06103f9565b6040516101ed9190611d3e565b60405180910390f35b610210600480360381019061020b91906119a4565b6103ff565b005b61021a610936565b005b610224610c42565b6040516102319190611d22565b60405180910390f35b600260009054906101000a900473ffffffffffffffffffffffffffffffffffffffff1681565b60045481565b60008060009054906101000a900473ffffffffffffffffffffffffffffffffffffffff16905090565b60055481565b6000600760003373ffffffffffffffffffffffffffffffffffffffff1673ffffffffffffffffffffffffffffffffffffffff16815260200190815260200160002060030154905090565b60008054906101000a900473ffffffffffffffffffffffffffffffffffffffff1681565b600660009054906101000a900473ffffffffffffffffffffffffffffffffffffffff1681565b6000600660009054906101000a900473ffffffffffffffffffffffffffffffffffffffff1673ffffffffffffffffffffffffffffffffffffffff166344a11f65836040518263ffffffff167c01000000000000000000000000000000000000000000000000000000000281526004016103a29190611bcb565b60206040518083038186803b1580156103ba57600080fd5b505afa1580156103ce573d6000803e3d6000fd5b505050506040513d601f19601f820116820180604052508101906103f29190611a09565b9050919050565b60035481565b600760003373ffffffffffffffffffffffffffffffffffffffff1673ffffffffffffffffffffffffffffffffffffffff16815260200190815260200160002060050160149054906101000a900460ff161561048f576040517f08c379a000000000000000000000000000000000000000000000000000000000815260040161048690611ce2565b60405180910390fd5b600760003373ffffffffffffffffffffffffffffffffffffffff1673ffffffffffffffffffffffffffffffffffffffff16815260200190815260200160002060050160159054906101000a900460ff16156105bd57600760003373ffffffffffffffffffffffffffffffffffffffff1673ffffffffffffffffffffffffffffffffffffffff1681526020019081526020016000206000808201600090556001820160009055600282016000905560038201600090556004820160006101000a81549073ffffffffffffffffffffffffffffffffffffffff02191690556005820160006101000a81549073ffffffffffffffffffffffffffffffffffffffff02191690556005820160146101000a81549060ff02191690556005820160156101000a81549060ff021916905550505b61068d600660009054906101000a900473ffffffffffffffffffffffffffffffffffffffff1673ffffffffffffffffffffffffffffffffffffffff16633ed47d97846040518263ffffffff167c01000000000000000000000000000000000000000000000000000000000281526004016106379190611bcb565b60206040518083038186803b15801561064f57600080fd5b505afa158015610663573d6000803e3d6000fd5b505050506040513d601f19601f82011682018060405250810190610687919061197b565b82610da4565b60405180610100016040528042815260200160008152602001828152602001600081526020018373ffffffffffffffffffffffffffffffffffffffff168152602001600660009054906101000a900473ffffffffffffffffffffffffffffffffffffffff1673ffffffffffffffffffffffffffffffffffffffff16633ed47d97856040518263ffffffff167c01000000000000000000000000000000000000000000000000000000000281526004016107469190611bcb565b60206040518083038186803b15801561075e57600080fd5b505afa158015610772573d6000803e3d6000fd5b505050506040513d601f19601f82011682018060405250810190610796919061197b565b73ffffffffffffffffffffffffffffffffffffffff16815260200160011515815260200160001515815250600760003373ffffffffffffffffffffffffffffffffffffffff1673ffffffffffffffffffffffffffffffffffffffff1681526020019081526020016000206000820151816000015560208201518160010155604082015181600201556060820151816003015560808201518160040160006101000a81548173ffffffffffffffffffffffffffffffffffffffff021916908373ffffffffffffffffffffffffffffffffffffffff16021790555060a08201518160050160006101000a81548173ffffffffffffffffffffffffffffffffffffffff021916908373ffffffffffffffffffffffffffffffffffffffff16021790555060c08201518160050160146101000a81548160ff02191690831515021790555060e08201518160050160156101000a81548160ff0219169083151502179055509050507f137aa2211519a57a4d90dfe2e629ca21eb9e78f178fab57e2ea5c6e1058f4d0c338360405161092a929190611be6565b60405180910390a15050565b42600760003373ffffffffffffffffffffffffffffffffffffffff1673ffffffffffffffffffffffffffffffffffffffff16815260200190815260200160002060010181905550610985610efe565b61098d61119e565b600760003373ffffffffffffffffffffffffffffffffffffffff1673ffffffffffffffffffffffffffffffffffffffff1681526020019081526020016000206003018190555060008054906101000a900473ffffffffffffffffffffffffffffffffffffffff1673ffffffffffffffffffffffffffffffffffffffff1663095ea7b333600760003373ffffffffffffffffffffffffffffffffffffffff1673ffffffffffffffffffffffffffffffffffffffff168152602001908152602001600020600301546040518363ffffffff167c0100000000000000000000000000000000000000000000000000000000028152600401610a8c929190611c46565b602060405180830381600087803b158015610aa657600080fd5b505af1158015610aba573d6000803e3d6000fd5b505050506040513d601f19601f82011682018060405250810190610ade91906119e0565b50610ae7611371565b610aef61147f565b6001600760003373ffffffffffffffffffffffffffffffffffffffff1673ffffffffffffffffffffffffffffffffffffffff16815260200190815260200160002060050160156101000a81548160ff0219169083151502179055506000600760003373ffffffffffffffffffffffffffffffffffffffff1673ffffffffffffffffffffffffffffffffffffffff16815260200190815260200160002060050160146101000a81548160ff0219169083151502179055507fcf89c87736de41f5ff70556801e20ae860b7146d71cedebd3df684c7dfae720533600760003373ffffffffffffffffffffffffffffffffffffffff1673ffffffffffffffffffffffffffffffffffffffff16815260200190815260200160002060040160009054906101000a900473ffffffffffffffffffffffffffffffffffffffff16604051610c38929190611be6565b60405180910390a1565b610c4a611874565b600760003373ffffffffffffffffffffffffffffffffffffffff1673ffffffffffffffffffffffffffffffffffffffff16815260200190815260200160002060405180610100016040529081600082015481526020016001820154815260200160028201548152602001600382015481526020016004820160009054906101000a900473ffffffffffffffffffffffffffffffffffffffff1673ffffffffffffffffffffffffffffffffffffffff1673ffffffffffffffffffffffffffffffffffffffff1681526020016005820160009054906101000a900473ffffffffffffffffffffffffffffffffffffffff1673ffffffffffffffffffffffffffffffffffffffff1673ffffffffffffffffffffffffffffffffffffffff1681526020016005820160149054906101000a900460ff161515151581526020016005820160159054906101000a900460ff161515151581525050905090565b8173ffffffffffffffffffffffffffffffffffffffff1663095ea7b330836040518363ffffffff167c0100000000000000000000000000000000000000000000000000000000028152600401610dfb929190611c46565b602060405180830381600087803b158015610e1557600080fd5b505af1158015610e29573d6000803e3d6000fd5b505050506040513d601f19601f82011682018060405250810190610e4d91906119e0565b508173ffffffffffffffffffffffffffffffffffffffff166323b872dd3330846040518463ffffffff167c0100000000000000000000000000000000000000000000000000000000028152600401610ea793929190611c0f565b602060405180830381600087803b158015610ec157600080fd5b505af1158015610ed5573d6000803e3d6000fd5b505050506040513d601f19601f82011682018060405250810190610ef991906119e0565b505050565b600760003373ffffffffffffffffffffffffffffffffffffffff1673ffffffffffffffffffffffffffffffffffffffff16815260200190815260200160002060050160009054906101000a900473ffffffffffffffffffffffffffffffffffffffff1673ffffffffffffffffffffffffffffffffffffffff1663095ea7b333600760003373ffffffffffffffffffffffffffffffffffffffff1673ffffffffffffffffffffffffffffffffffffffff168152602001908152602001600020600201546040518363ffffffff167c0100000000000000000000000000000000000000000000000000000000028152600401610ff9929190611c46565b602060405180830381600087803b15801561101357600080fd5b505af1158015611027573d6000803e3d6000fd5b505050506040513d601f19601f8201168201806040525081019061104b91906119e0565b50600760003373ffffffffffffffffffffffffffffffffffffffff1673ffffffffffffffffffffffffffffffffffffffff16815260200190815260200160002060050160009054906101000a900473ffffffffffffffffffffffffffffffffffffffff1673ffffffffffffffffffffffffffffffffffffffff166323b872dd3033600760003373ffffffffffffffffffffffffffffffffffffffff1673ffffffffffffffffffffffffffffffffffffffff168152602001908152602001600020600201546040518463ffffffff167c010000000000000000000000000000000000000000000000000000000002815260040161114993929190611c0f565b602060405180830381600087803b15801561116357600080fd5b505af1158015611177573d6000803e3d6000fd5b505050506040513d601f19601f8201168201806040525081019061119b91906119e0565b50565b600080600660009054906101000a900473ffffffffffffffffffffffffffffffffffffffff1673ffffffffffffffffffffffffffffffffffffffff166344a11f65600760003373ffffffffffffffffffffffffffffffffffffffff1673ffffffffffffffffffffffffffffffffffffffff16815260200190815260200160002060040160009054906101000a900473ffffffffffffffffffffffffffffffffffffffff166040518263ffffffff167c010000000000000000000000000000000000000000000000000000000002815260040161127a9190611bcb565b60206040518083038186803b15801561129257600080fd5b505afa1580156112a6573d6000803e3d6000fd5b505050506040513d601f19601f820116820180604052508101906112ca9190611a09565b905060006112df6112d9611615565b836116b3565b905061132d81600760003373ffffffffffffffffffffffffffffffffffffffff1673ffffffffffffffffffffffffffffffffffffffff168152602001908152602001600020600201546116b3565b905061134181670de0b6b3a76400006116c9565b9050611351816305f5e1006116c9565b90506000611366826113616116df565b6116c9565b905080935050505090565b60008054906101000a900473ffffffffffffffffffffffffffffffffffffffff1673ffffffffffffffffffffffffffffffffffffffff1663095ea7b330600760003373ffffffffffffffffffffffffffffffffffffffff1673ffffffffffffffffffffffffffffffffffffffff168152602001908152602001600020600301546040518363ffffffff167c010000000000000000000000000000000000000000000000000000000002815260040161142a929190611c46565b602060405180830381600087803b15801561144457600080fd5b505af1158015611458573d6000803e3d6000fd5b505050506040513d601f19601f8201168201806040525081019061147c91906119e0565b50565b6000600760003373ffffffffffffffffffffffffffffffffffffffff1673ffffffffffffffffffffffffffffffffffffffff168152602001908152602001600020600301541415611505576040517f08c379a00000000000000000000000000000000000000000000000000000000081526004016114fc90611d02565b60405180910390fd5b60008054906101000a900473ffffffffffffffffffffffffffffffffffffffff1673ffffffffffffffffffffffffffffffffffffffff166323b872dd3033600760003373ffffffffffffffffffffffffffffffffffffffff1673ffffffffffffffffffffffffffffffffffffffff168152602001908152602001600020600301546040518463ffffffff167c01000000000000000000000000000000000000000000000000000000000281526004016115c093929190611c0f565b602060405180830381600087803b1580156115da57600080fd5b505af11580156115ee573d6000803e3d6000fd5b505050506040513d601f19601f8201168201806040525081019061161291906119e0565b50565b60008061163561162e600a670de0b6b3a76400006116b3565b60646116c9565b905060006301d5560090506000600760003373ffffffffffffffffffffffffffffffffffffffff1673ffffffffffffffffffffffffffffffffffffffff16815260200190815260200160002060000154426116909190611e1b565b905060006116a76116a185846116b3565b846116c9565b90508094505050505090565b600081836116c19190611dc1565b905092915050565b600081836116d79190611d90565b905092915050565b6000600660009054906101000a900473ffffffffffffffffffffffffffffffffffffffff1673ffffffffffffffffffffffffffffffffffffffff166344a11f6560008054906101000a900473ffffffffffffffffffffffffffffffffffffffff166040518263ffffffff167c01000000000000000000000000000000000000000000000000000000000281526004016117789190611bcb565b60206040518083038186803b15801561179057600080fd5b505afa9250505080156117c157506040513d601f19601f820116820180604052508101906117be9190611a09565b60015b61186c576117cd611ff4565b806308c379a014156117f757506117e26120a2565b806117ed57506117f9565b600a915050611871565b505b3d8060008114611825576040519150601f19603f3d011682016040523d82523d6000602084013e61182a565b606091505b507feaed56172f8b6b67eab86d8bb0f1fd08631a823b86f5c42cb345b2e5b289702a8160405161185a9190611c6f565b60405180910390a1600a915050611871565b809150505b90565b60405180610100016040528060008152602001600081526020016000815260200160008152602001600073ffffffffffffffffffffffffffffffffffffffff168152602001600073ffffffffffffffffffffffffffffffffffffffff1681526020016000151581526020016000151581525090565b6000813590506118f881612138565b92915050565b60008151905061190d81612138565b92915050565b6000815190506119228161214f565b92915050565b60008135905061193781612166565b92915050565b60008151905061194c81612166565b92915050565b60006020828403121561196457600080fd5b6000611972848285016118e9565b91505092915050565b60006020828403121561198d57600080fd5b600061199b848285016118fe565b91505092915050565b600080604083850312156119b757600080fd5b60006119c5858286016118e9565b92505060206119d685828601611928565b9150509250929050565b6000602082840312156119f257600080fd5b6000611a0084828501611913565b91505092915050565b600060208284031215611a1b57600080fd5b6000611a298482850161193d565b91505092915050565b611a3b81611e4f565b82525050565b611a4a81611e4f565b82525050565b611a5981611e61565b82525050565b6000611a6a82611d63565b611a748185611d6e565b9350611a84818560208601611f03565b611a8d81612016565b840191505092915050565b611aa181611e97565b82525050565b611ab081611ebb565b82525050565b611abf81611edf565b82525050565b6000611ad2602083611d7f565b9150611add82612050565b602082019050919050565b6000611af5601c83611d7f565b9150611b0082612079565b602082019050919050565b61010082016000820151611b226000850182611bad565b506020820151611b356020850182611bad565b506040820151611b486040850182611bad565b506060820151611b5b6060850182611bad565b506080820151611b6e6080850182611a32565b5060a0820151611b8160a0850182611a32565b5060c0820151611b9460c0850182611a50565b5060e0820151611ba760e0850182611a50565b50505050565b611bb681611e8d565b82525050565b611bc581611e8d565b82525050565b6000602082019050611be06000830184611a41565b92915050565b6000604082019050611bfb6000830185611a41565b611c086020830184611a41565b9392505050565b6000606082019050611c246000830186611a41565b611c316020830185611a41565b611c3e6040830184611bbc565b949350505050565b6000604082019050611c5b6000830185611a41565b611c686020830184611bbc565b9392505050565b60006020820190508181036000830152611c898184611a5f565b905092915050565b6000602082019050611ca66000830184611a98565b92915050565b6000602082019050611cc16000830184611aa7565b92915050565b6000602082019050611cdc6000830184611ab6565b92915050565b60006020820190508181036000830152611cfb81611ac5565b9050919050565b60006020820190508181036000830152611d1b81611ae8565b9050919050565b600061010082019050611d386000830184611b0b565b92915050565b6000602082019050611d536000830184611bbc565b92915050565b6000604051905090565b600081519050919050565b600082825260208201905092915050565b600082825260208201905092915050565b6000611d9b82611e8d565b9150611da683611e8d565b925082611db657611db5611f96565b5b828204905092915050565b6000611dcc82611e8d565b9150611dd783611e8d565b9250817fffffffffffffffffffffffffffffffffffffffffffffffffffffffffffffffff0483118215151615611e1057611e0f611f67565b5b828202905092915050565b6000611e2682611e8d565b9150611e3183611e8d565b925082821015611e4457611e43611f67565b5b828203905092915050565b6000611e5a82611e6d565b9050919050565b60008115159050919050565b600073ffffffffffffffffffffffffffffffffffffffff82169050919050565b6000819050919050565b6000611ea282611ea9565b9050919050565b6000611eb482611e6d565b9050919050565b6000611ec682611ecd565b9050919050565b6000611ed882611e6d565b9050919050565b6000611eea82611ef1565b9050919050565b6000611efc82611e6d565b9050919050565b60005b83811015611f21578082015181840152602081019050611f06565b83811115611f30576000848401525b50505050565b611f3f82612016565b810181811067ffffffffffffffff82111715611f5e57611f5d611fc5565b5b80604052505050565b7f4e487b7100000000000000000000000000000000000000000000000000000000600052601160045260246000fd5b7f4e487b7100000000000000000000000000000000000000000000000000000000600052601260045260246000fd5b7f4e487b7100000000000000000000000000000000000000000000000000000000600052604160045260246000fd5b600060033d11156120135760046000803e612010600051612027565b90505b90565b6000601f19601f8301169050919050565b60007c010000000000000000000000000000000000000000000000000000000082049050919050565b7f596f75206861766520616c7265616479207374616b65206f6e6520746f6b656e600082015250565b7f526577617264206973206e6f74207965742063616c63756c6174656400000000600082015250565b600060443d10156120b257612135565b6120ba611d59565b60043d036004823e80513d602482011167ffffffffffffffff821117156120e2575050612135565b808201805167ffffffffffffffff8111156121005750505050612135565b80602083010160043d03850181111561211d575050505050612135565b61212c82602001850186611f36565b82955050505050505b90565b61214181611e4f565b811461214c57600080fd5b50565b61215881611e61565b811461216357600080fd5b50565b61216f81611e8d565b811461217a57600080fd5b5056fea2646970667358221220e28d636231b81d985f42102bd5ba5184d8b5ec57e8751bfc247bf436e1979f1064736f6c6343000801003360806040523480156200001157600080fd5b5060405162001a5a38038062001a5a83398181016040528101906200003791906200032f565b81818160039080519060200190620000519291906200020d565b5080600490805190602001906200006a9291906200020d565b505050620000923369021e19e0c9bab24000006200009a640100000000026401000000009004565b505062000659565b600073ffffffffffffffffffffffffffffffffffffffff168273ffffffffffffffffffffffffffffffffffffffff1614156200010d576040517f08c379a00000000000000000000000000000000000000000000000000000000081526004016200010490620003da565b60405180910390fd5b6200012a6000838362000208640100000000026401000000009004565b80600260008282546200013e919062000489565b92505081905550806000808473ffffffffffffffffffffffffffffffffffffffff1673ffffffffffffffffffffffffffffffffffffffff168152602001908152602001600020600082825462000195919062000489565b925050819055508173ffffffffffffffffffffffffffffffffffffffff16600073ffffffffffffffffffffffffffffffffffffffff167fddf252ad1be2c89b69c2b068fc378daa952ba7f163c4a11628f55a4df523b3ef83604051620001fc9190620003fc565b60405180910390a35050565b505050565b8280546200021b9062000526565b90600052602060002090601f0160209004810192826200023f57600085556200028b565b82601f106200025a57805160ff19168380011785556200028b565b828001600101855582156200028b579182015b828111156200028a5782518255916020019190600101906200026d565b5b5090506200029a91906200029e565b5090565b5b80821115620002b95760008160009055506001016200029f565b5090565b6000620002d4620002ce8462000442565b62000419565b905082815260208101848484011115620002ed57600080fd5b620002fa848285620004f0565b509392505050565b600082601f8301126200031457600080fd5b815162000326848260208601620002bd565b91505092915050565b600080604083850312156200034357600080fd5b600083015167ffffffffffffffff8111156200035e57600080fd5b6200036c8582860162000302565b925050602083015167ffffffffffffffff8111156200038a57600080fd5b620003988582860162000302565b9150509250929050565b6000620003b1601f8362000478565b9150620003be8262000630565b602082019050919050565b620003d481620004e6565b82525050565b60006020820190508181036000830152620003f581620003a2565b9050919050565b6000602082019050620004136000830184620003c9565b92915050565b60006200042562000438565b90506200043382826200055c565b919050565b6000604051905090565b600067ffffffffffffffff82111562000460576200045f620005f0565b5b6200046b826200061f565b9050602081019050919050565b600082825260208201905092915050565b60006200049682620004e6565b9150620004a383620004e6565b9250827fffffffffffffffffffffffffffffffffffffffffffffffffffffffffffffffff03821115620004db57620004da62000592565b5b828201905092915050565b6000819050919050565b60005b8381101562000510578082015181840152602081019050620004f3565b8381111562000520576000848401525b50505050565b600060028204905060018216806200053f57607f821691505b60208210811415620005565762000555620005c1565b5b50919050565b62000567826200061f565b810181811067ffffffffffffffff82111715620005895762000588620005f0565b5b80604052505050565b7f4e487b7100000000000000000000000000000000000000000000000000000000600052601160045260246000fd5b7f4e487b7100000000000000000000000000000000000000000000000000000000600052602260045260246000fd5b7f4e487b7100000000000000000000000000000000000000000000000000000000600052604160045260246000fd5b6000601f19601f8301169050919050565b7f45524332303a206d696e7420746f20746865207a65726f206164647265737300600082015250565b6113f180620006696000396000f3fe608060405234801561001057600080fd5b50600436106100c6576000357c010000000000000000000000000000000000000000000000000000000090048063395093511161008e578063395093511461018557806370a08231146101b557806395d89b41146101e5578063a457c2d714610203578063a9059cbb14610233578063dd62ed3e14610263576100c6565b806306fdde03146100cb578063095ea7b3146100e957806318160ddd1461011957806323b872dd14610137578063313ce56714610167575b600080fd5b6100d3610293565b6040516100e09190610e5d565b60405180910390f35b61010360048036038101906100fe9190610cab565b610325565b6040516101109190610e42565b60405180910390f35b610121610343565b60405161012e9190610f5f565b60405180910390f35b610151600480360381019061014c9190610c5c565b61034d565b60405161015e9190610e42565b60405180910390f35b61016f61044e565b60405161017c9190610f7a565b60405180910390f35b61019f600480360381019061019a9190610cab565b610457565b6040516101ac9190610e42565b60405180910390f35b6101cf60048036038101906101ca9190610bf7565b610503565b6040516101dc9190610f5f565b60405180910390f35b6101ed61054b565b6040516101fa9190610e5d565b60405180910390f35b61021d60048036038101906102189190610cab565b6105dd565b60405161022a9190610e42565b60405180910390f35b61024d60048036038101906102489190610cab565b6106d1565b60405161025a9190610e42565b60405180910390f35b61027d60048036038101906102789190610c20565b6106ef565b60405161028a9190610f5f565b60405180910390f35b6060600380546102a2906110c3565b80601f01602080910402602001604051908101604052809291908181526020018280546102ce906110c3565b801561031b5780601f106102f05761010080835404028352916020019161031b565b820191906000526020600020905b8154815290600101906020018083116102fe57829003601f168201915b5050505050905090565b6000610339610332610776565b848461077e565b6001905092915050565b6000600254905090565b600061035a848484610949565b6000600160008673ffffffffffffffffffffffffffffffffffffffff1673ffffffffffffffffffffffffffffffffffffffff16815260200190815260200160002060006103a5610776565b73ffffffffffffffffffffffffffffffffffffffff1673ffffffffffffffffffffffffffffffffffffffff16815260200190815260200160002054905082811015610425576040517f08c379a000000000000000000000000000000000000000000000000000000000815260040161041c90610edf565b60405180910390fd5b61044285610431610776565b858461043d9190611007565b61077e565b60019150509392505050565b60006012905090565b60006104f9610464610776565b848460016000610472610776565b73ffffffffffffffffffffffffffffffffffffffff1673ffffffffffffffffffffffffffffffffffffffff16815260200190815260200160002060008873ffffffffffffffffffffffffffffffffffffffff1673ffffffffffffffffffffffffffffffffffffffff168152602001908152602001600020546104f49190610fb1565b61077e565b6001905092915050565b60008060008373ffffffffffffffffffffffffffffffffffffffff1673ffffffffffffffffffffffffffffffffffffffff168152602001908152602001600020549050919050565b60606004805461055a906110c3565b80601f0160208091040260200160405190810160405280929190818152602001828054610586906110c3565b80156105d35780601f106105a8576101008083540402835291602001916105d3565b820191906000526020600020905b8154815290600101906020018083116105b657829003601f168201915b5050505050905090565b600080600160006105ec610776565b73ffffffffffffffffffffffffffffffffffffffff1673ffffffffffffffffffffffffffffffffffffffff16815260200190815260200160002060008573ffffffffffffffffffffffffffffffffffffffff1673ffffffffffffffffffffffffffffffffffffffff168152602001908152602001600020549050828110156106a9576040517f08c379a00000000000000000000000000000000000000000000000000000000081526004016106a090610f3f565b60405180910390fd5b6106c66106b4610776565b8585846106c19190611007565b61077e565b600191505092915050565b60006106e56106de610776565b8484610949565b6001905092915050565b6000600160008473ffffffffffffffffffffffffffffffffffffffff1673ffffffffffffffffffffffffffffffffffffffff16815260200190815260200160002060008373ffffffffffffffffffffffffffffffffffffffff1673ffffffffffffffffffffffffffffffffffffffff16815260200190815260200160002054905092915050565b600033905090565b600073ffffffffffffffffffffffffffffffffffffffff168373ffffffffffffffffffffffffffffffffffffffff1614156107ee576040517f08c379a00000000000000000000000000000000000000000000000000000000081526004016107e590610f1f565b60405180910390fd5b600073ffffffffffffffffffffffffffffffffffffffff168273ffffffffffffffffffffffffffffffffffffffff16141561085e576040517f08c379a000000000000000000000000000000000000000000000000000000000815260040161085590610e9f565b60405180910390fd5b80600160008573ffffffffffffffffffffffffffffffffffffffff1673ffffffffffffffffffffffffffffffffffffffff16815260200190815260200160002060008473ffffffffffffffffffffffffffffffffffffffff1673ffffffffffffffffffffffffffffffffffffffff168152602001908152602001600020819055508173ffffffffffffffffffffffffffffffffffffffff168373ffffffffffffffffffffffffffffffffffffffff167f8c5be1e5ebec7d5bd14f71427d1e84f3dd0314c0f7b2291e5b200ac8c7c3b9258360405161093c9190610f5f565b60405180910390a3505050565b600073ffffffffffffffffffffffffffffffffffffffff168373ffffffffffffffffffffffffffffffffffffffff1614156109b9576040517f08c379a00000000000000000000000000000000000000000000000000000000081526004016109b090610eff565b60405180910390fd5b600073ffffffffffffffffffffffffffffffffffffffff168273ffffffffffffffffffffffffffffffffffffffff161415610a29576040517f08c379a0000000000000000000000000000000000000000000000000000000008152600401610a2090610e7f565b60405180910390fd5b610a34838383610bc8565b60008060008573ffffffffffffffffffffffffffffffffffffffff1673ffffffffffffffffffffffffffffffffffffffff16815260200190815260200160002054905081811015610aba576040517f08c379a0000000000000000000000000000000000000000000000000000000008152600401610ab190610ebf565b60405180910390fd5b8181610ac69190611007565b6000808673ffffffffffffffffffffffffffffffffffffffff1673ffffffffffffffffffffffffffffffffffffffff16815260200190815260200160002081905550816000808573ffffffffffffffffffffffffffffffffffffffff1673ffffffffffffffffffffffffffffffffffffffff1681526020019081526020016000206000828254610b569190610fb1565b925050819055508273ffffffffffffffffffffffffffffffffffffffff168473ffffffffffffffffffffffffffffffffffffffff167fddf252ad1be2c89b69c2b068fc378daa952ba7f163c4a11628f55a4df523b3ef84604051610bba9190610f5f565b60405180910390a350505050565b505050565b600081359050610bdc8161138d565b92915050565b600081359050610bf1816113a4565b92915050565b600060208284031215610c0957600080fd5b6000610c1784828501610bcd565b91505092915050565b60008060408385031215610c3357600080fd5b6000610c4185828601610bcd565b9250506020610c5285828601610bcd565b9150509250929050565b600080600060608486031215610c7157600080fd5b6000610c7f86828701610bcd565b9350506020610c9086828701610bcd565b9250506040610ca186828701610be2565b9150509250925092565b60008060408385031215610cbe57600080fd5b6000610ccc85828601610bcd565b9250506020610cdd85828601610be2565b9150509250929050565b610cf08161104d565b82525050565b6000610d0182610f95565b610d0b8185610fa0565b9350610d1b818560208601611090565b610d2481611153565b840191505092915050565b6000610d3c602383610fa0565b9150610d4782611164565b604082019050919050565b6000610d5f602283610fa0565b9150610d6a826111b3565b604082019050919050565b6000610d82602683610fa0565b9150610d8d82611202565b604082019050919050565b6000610da5602883610fa0565b9150610db082611251565b604082019050919050565b6000610dc8602583610fa0565b9150610dd3826112a0565b604082019050919050565b6000610deb602483610fa0565b9150610df6826112ef565b604082019050919050565b6000610e0e602583610fa0565b9150610e198261133e565b604082019050919050565b610e2d81611079565b82525050565b610e3c81611083565b82525050565b6000602082019050610e576000830184610ce7565b92915050565b60006020820190508181036000830152610e778184610cf6565b905092915050565b60006020820190508181036000830152610e9881610d2f565b9050919050565b60006020820190508181036000830152610eb881610d52565b9050919050565b60006020820190508181036000830152610ed881610d75565b9050919050565b60006020820190508181036000830152610ef881610d98565b9050919050565b60006020820190508181036000830152610f1881610dbb565b9050919050565b60006020820190508181036000830152610f3881610dde565b9050919050565b60006020820190508181036000830152610f5881610e01565b9050919050565b6000602082019050610f746000830184610e24565b92915050565b6000602082019050610f8f6000830184610e33565b92915050565b600081519050919050565b600082825260208201905092915050565b6000610fbc82611079565b9150610fc783611079565b9250827fffffffffffffffffffffffffffffffffffffffffffffffffffffffffffffffff03821115610ffc57610ffb6110f5565b5b828201905092915050565b600061101282611079565b915061101d83611079565b9250828210156110305761102f6110f5565b5b828203905092915050565b600061104682611059565b9050919050565b60008115159050919050565b600073ffffffffffffffffffffffffffffffffffffffff82169050919050565b6000819050919050565b600060ff82169050919050565b60005b838110156110ae578082015181840152602081019050611093565b838111156110bd576000848401525b50505050565b600060028204905060018216806110db57607f821691505b602082108114156110ef576110ee611124565b5b50919050565b7f4e487b7100000000000000000000000000000000000000000000000000000000600052601160045260246000fd5b7f4e487b7100000000000000000000000000000000000000000000000000000000600052602260045260246000fd5b6000601f19601f8301169050919050565b7f45524332303a207472616e7366657220746f20746865207a65726f206164647260008201527f6573730000000000000000000000000000000000000000000000000000000000602082015250565b7f45524332303a20617070726f766520746f20746865207a65726f20616464726560008201527f7373000000000000000000000000000000000000000000000000000000000000602082015250565b7f45524332303a207472616e7366657220616d6f756e742065786365656473206260008201527f616c616e63650000000000000000000000000000000000000000000000000000602082015250565b7f45524332303a207472616e7366657220616d6f756e742065786365656473206160008201527f6c6c6f77616e6365000000000000000000000000000000000000000000000000602082015250565b7f45524332303a207472616e736665722066726f6d20746865207a65726f20616460008201527f6472657373000000000000000000000000000000000000000000000000000000602082015250565b7f45524332303a20617070726f76652066726f6d20746865207a65726f2061646460008201527f7265737300000000000000000000000000000000000000000000000000000000602082015250565b7f45524332303a2064656372656173656420616c6c6f77616e63652062656c6f7760008201527f207a65726f000000000000000000000000000000000000000000000000000000602082015250565b6113968161103b565b81146113a157600080fd5b50565b6113ad81611079565b81146113b857600080fd5b5056fea2646970667358221220e8473cb10c6480f17bb9fc3269f7f0fa935e29261ff17b13bae3f49d9ab6ee0364736f6c63430008010033",
  "immutableReferences": {},
  "source": "// SPDX-License-Identifier: GPL-3.0\r\npragma solidity 0.8.1;\r\nimport '@openzeppelin/contracts/utils/math/SafeMath.sol';\r\nimport \"@chainlink/contracts/src/v0.6/interfaces/AggregatorV3Interface.sol\";\r\nimport \"./CrowdsaleERC20Chainlink.sol\";\r\n\r\ncontract Staking {\r\n     \r\n    constructor(address crowdAddress) public {\r\n      tokenANTC = new ERC20Chainlink('ANTMONEY', 'ANTC');\r\n      crowd = CrowdsaleERC20Chainlink(crowdAddress);\r\n    }  \r\n     \r\n    ERC20Chainlink public tokenANTC;\r\n    AggregatorV3Interface internal priceFeed;\r\n    IERC20 public ERC20Interface;\r\n    uint public tempRewardsUSD;\r\n    uint public tempRewards;\r\n    uint public elapsedTime;\r\n    CrowdsaleERC20Chainlink public crowd;\r\n    \r\n    mapping(address => staker) stakers;\r\n    // gestion events\r\n    // objet staker avec temps debut fin quantit contrat staking user \r\n    struct staker{\r\n        uint startStaking;\r\n        uint stopStaking;\r\n        uint amount;\r\n        uint amountReward;\r\n        address chainlinkAddress;\r\n        address tokenERC20Address;\r\n        bool isStaking;\r\n        bool unstaked;\r\n    }\r\n    \r\n    event StakeToken(address user, address chainlinkAddress);\r\n    event UnStakeToken(address user, address chainlinkAddress);\r\n    event ErrorGetTheprice(bytes reason);\r\n    \r\n    // Public Functions\r\n    \r\n    // approve contract ERC20 with amount before by user to stake \r\n    function Stake(address chainlinkAddress, uint256 amount) external {\r\n        // we could stake only one token by time for one user\r\n        require(!stakers[msg.sender].isStaking, \"You have already stake one token\");\r\n        \r\n        if(stakers[msg.sender].unstaked){\r\n            delete(stakers[msg.sender]);\r\n        }\r\n        \r\n        distributeERC20(crowd.getAddressERC20(chainlinkAddress), amount);\r\n        stakers[msg.sender] = staker(block.timestamp,0,amount, 0, chainlinkAddress,crowd.getAddressERC20(chainlinkAddress),true, false);\r\n        emit StakeToken(msg.sender ,chainlinkAddress);\r\n    } \r\n    \r\n    // Approve token and then hive the calculated reward depending of time and price of the token staked\r\n    function UnStake() external {  // pause\r\n        stakers[msg.sender].stopStaking = block.timestamp;\r\n        unstakeERC20();\r\n        stakers[msg.sender].amountReward = CalculRewards();\r\n        tokenANTC.approve(msg.sender, stakers[msg.sender].amountReward);\r\n        approveContract();\r\n        GiveRewards();\r\n        stakers[msg.sender].unstaked = true;\r\n        stakers[msg.sender].isStaking = false;\r\n        emit UnStakeToken(msg.sender ,stakers[msg.sender].chainlinkAddress);\r\n    } \r\n    \r\n    // End Public Functions\r\n    \r\n    // Private Functions\r\n    \r\n    // to give rewards the house token must be approved \r\n    // to do get in the mapping object the amount of the reward\r\n    function approveContract() internal{\r\n        ERC20Chainlink(address(tokenANTC)).approve(address(this), stakers[msg.sender].amountReward);\r\n    }\r\n    \r\n    function GetTokenANTCAddress() view external returns(address) {\r\n      return address(tokenANTC);\r\n    }\r\n    \r\n    function getTokenPrice(address chainlinkAddress) public view returns(uint){\r\n        return crowd.getThePrice(chainlinkAddress);\r\n    }\r\n    \r\n    // get the reward stored in stakers\r\n    function getTokenRewardByUser() public view returns(uint){\r\n        return stakers[msg.sender].amountReward;\r\n    }\r\n    \r\n    function getDataUser() public view returns(staker memory) {\r\n        return stakers[msg.sender];\r\n    }\r\n\r\n    // take the token sent by user to be staked \r\n    function distributeERC20(address tokenAddress, uint256 amount) internal {\r\n        ERC20Chainlink(tokenAddress).approve(address(this), amount);\r\n        ERC20Chainlink(tokenAddress).transferFrom(msg.sender,address(this), amount);\r\n    }\r\n    \r\n    // unstaked the token to give it back to user\r\n    function unstakeERC20() internal {  \r\n        ERC20(stakers[msg.sender].tokenERC20Address).approve(msg.sender, stakers[msg.sender].amount);\r\n        ERC20(stakers[msg.sender].tokenERC20Address).transferFrom(address(this), msg.sender, stakers[msg.sender].amount);  \r\n    }\r\n    \r\n    function CalculRewards() internal returns(uint) {\r\n        // get the price in USD of the ERC20 Token staked in the contract\r\n        uint256 priceMoneyUSD = crowd.getThePrice(stakers[msg.sender].chainlinkAddress);\r\n        // calcul the reward during the time of staking\r\n        uint rewardUSD = SafeMath.mul(getRewardTime(), priceMoneyUSD);\r\n        rewardUSD = SafeMath.mul(rewardUSD, stakers[msg.sender].amount);\r\n        rewardUSD = SafeMath.div(rewardUSD, 1e18);\r\n        rewardUSD = SafeMath.div(rewardUSD, 1e8);\r\n        uint tokenReward = SafeMath.div(rewardUSD, getOwnTokenUSDPrice());\r\n        return tokenReward;\r\n    }\r\n    \r\n    // send to the user the reward with the tokenANTC \r\n    function GiveRewards() internal {\r\n        require(stakers[msg.sender].amountReward != 0, \"Reward is not yet calculated\");\r\n        tokenANTC.transferFrom(address(this), msg.sender, stakers[msg.sender].amountReward);\r\n    }\r\n    \r\n    function getRewardTime() internal view returns(uint) {\r\n        // 10% for one year\r\n        uint apy = SafeMath.div(SafeMath.mul(10, 1e18), 100);\r\n        uint oneYearInSeconds = 30758400;\r\n        uint elpasedTime = block.timestamp - stakers[msg.sender].startStaking;\r\n        uint apyElapsedTime = SafeMath.div(SafeMath.mul(apy, elpasedTime), oneYearInSeconds);\r\n        return apyElapsedTime;\r\n    }\r\n    \r\n    // we call chainlink price for our token and intercept error since the token is not listed\r\n    // by convention we sent 10 token for one USD\r\n    function getOwnTokenUSDPrice() internal returns(uint){\r\n        try crowd.getThePrice(address(tokenANTC)) returns(uint res){\r\n            return res;\r\n        }\r\n        catch Error(string memory){\r\n           return 10; \r\n        } catch (bytes memory reason) {\r\n            emit ErrorGetTheprice(reason);\r\n            return 10;\r\n        }\r\n    }\r\n    \r\n    // End private Functions\r\n}",
  "sourcePath": "C:/Node/StakingGanache/contracts/staking.sol",
  "compiler": {
    "name": "solc",
    "version": "0.8.1+commit.df193b15.Emscripten.clang"
  },
  "schemaVersion": "3.4.1",
  "updatedAt": "2021-07-03T08:02:56.872Z",
  "networkType": "ethereum",
  "devdoc": {
    "kind": "dev",
    "methods": {},
    "version": 1
  },
  "userdoc": {
    "kind": "user",
    "methods": {},
    "version": 1
  }
}